:1008670054657374696E672D2D2D2D2D2D006162D2
:100877006364656667680061616161616161610008
:0A088700C291D2928F807F647E0040
:10089100D3EF9400EE94004007EF1F70F31E80F039
:0108A1002234
:0E08DD00C290120887C2927F647E00020891CA
:0E08EB00D290120887C2927F647E00020891AC
:10083D007FD07E071208917F301208DD7F301208BD
:10084D00DD7F381208DD7F081208DD7F011208DD1B
:0A085D007F061208DD7F0C0208DDA3
:0F08CE001FED1DEF75F040A42D2480FF0208DD03
:1008BB001208A2FF600C1208EB740129F9E43AFA52
:0308CB0080EE229A
:1008000012083D7D017C007F011208CE7BFF7A0833
:1008100079671208BB7D017F021208CE7A087975CC
:100820001208BB7F507EC312089112083D7D017FE4
:0D083000011208CE7A08797E1208BB80FE06
:030000000208F9FA
:0C08F900787FE4F6D8FD75810702080046
:1008A200BB010689828A83E0225002E722BBFE0254
:0908B200E32289828A83E4932287
:00000001FF
