:0A087E00C0F9A4B0999283F88098A5
:10085200AF08EF3395E0FE747E2FF58274083EF503
:1008620083E493F5A0D2AFD2A9758901D28C80FE20
:03001B00020800D8
:10080000C0E0C083C082C0D075D000C006C00775EC
:100810008C3C758AB00509C3E50964809494401A3C
:100820007509000508AF08EF3395E0FE747E2FF5DB
:100830008274083EF583E493F5A0C3E508648094D0
:100840008A4002C28CD007D006D0D0D082D083D0CC
:02085000E03294
:0300000002087281
:0C087200787FE4F6D8FD75810902085279
:00000001FF
