:0A08EA002068656C6C6F20000000B0
:0308F400010800F8
:1008D700758920758DF3759850D28ED2ACD2AFD270
:0308E7009980FEF7
:0300230002088C44
:10088C00C0E0C083C082C0D075D000C006C00730A5
:10089C009927C299C3E508648094875019AF08055D
:1008AC0008EF3395E0FE74EA2FF58274083EF58369
:1008BC00E493F5998003750800309802C298D0072C
:0B08CC00D006D0D0D082D083D0E03224
:03000000020800F3
:0C080000787FE4F6D8FD758108020847F7
:10080C000208D7E493A3F8E493A34003F68001F223
:10081C0008DFF48029E493A3F85407240CC8C333ED
:10082C00C4540F4420C8834004F456800146F6DFBC
:10083C00E4800B01020408102040809008F4E47E50
:10084C00019360BCA3FF543F30E509541FFEE493B1
:10085C00A360010ECF54C025E060A840B8E493A378
:10086C00FAE493A3F8E493A3C8C582C8CAC583CAA3
:10087C00F0A3C8C582C8CAC583CADFE9DEE780BE5B
:0108F7000000
:00000001FF
