:10088900D3EF9400EE94004007EF1F70F31E80F041
:01089900223C
:03000300020835BB
:0F083500C0E0C0D075D000C004C005C006C00729
:100844007D01E4FCEDF4F580ED25E0FD7F307E755F
:070854001208890CBC08ED3D
:0D085B00D007D006D005D004D0D0D0E032B8
:03001300020800E0
:0D080000C0E0C0D075D000C005C006C00724
:10080D007580FFE4FDC2A07F507EC3120889D2A07F
:0D081D007F507EC31208890DBD05EAD2A0F0
:0B082A00D007D006D005D0D0D0E032BF
:10086800E4F508C28AC288D2BAD2AAD2A8D2AFD234
:10087800A0E508F4F580F5087F207E4E12088980EF
:01088800EE81
:0300000002089A59
:0C089A00787FE4F6D8FD7581080208683C
:00000001FF
